:100000000C9434000C943E000C943E000C943E0082
:100010000C943E000C943E000C943E000C943E0068
:100020000C943E000C943E000C943E000C943E0058
:100030000C943E000C943E000C943E000C943E0048
:100040000C943E000C943E000C943E000C943E0038
:100050000C943E000C943E000C943E000C943E0028
:100060000C943E000C943E0011241FBECFEFD8E04C
:10007000DEBFCDBF0E9455000C945D000C940000C3
:1000800016BC14BC84E085BD88E191E0A89BFECF3E
:1000900016BC95BB8150D1F786E986BDA89BFECFE3
:1000A00081E085BB14BC15BC0895259AC0E285B1DA
:0E00B0008C2785B90E944000FACFF894FFCF4C
:00000001FF
