:100000000C9434000C9446000C9446000C9446006A
:100010000C9446000C9446000C9446000C94460048
:100020000C9446000C9446000C9446000C94460038
:100030000C9446000C9470000C9446000C944600FE
:100040000C9448000C9446000C9446000C94460016
:100050000C9446000C9446000C9446000C94460008
:100060000C9446000C94460011241FBECFEFD8E03C
:10007000DEBFCDBF21E0A0E0B1E001C01D92A23003
:10008000B207E1F70E9488000C94A4000C940000D1
:100090001F920F920FB60F9211248F939F9380910E
:1000A0000001909101010C9751F48BEC86BD1092E8
:1000B00001011092000195B180E1892785B98091F5
:1000C000000190910101019690930101809300013C
:1000D00016BC9F918F910F900FBE0F901F90189597
:1000E0001F920F920FB60F9211248F939F938EEE53
:1000F00095E8909385008093840095B180E28927EC
:1001000085B99F918F910F900FBE0F901F901895FA
:100110008FEF84B915B894E090938100109280001D
:1001200081E080936F002EEE35E8309385002093B8
:100130008400109201011092000114BC95BD8093BF
:0C0140006E0016BC7894FFCFF894FFCF3F
:00000001FF
