:100000000C9434000C943E000C943E000C943E0082
:100010000C943E000C943E000C943E000C943E0068
:100020000C943E000C943E000C943E000C943E0058
:100030000C943E000C943E000C943E000C943E0048
:100040000C943E000C943E000C943E000C943E0038
:100050000C943E000C943E000C943E000C943E0028
:100060000C943E000C943E0011241FBECFEFD8E04C
:10007000DEBFCDBF0E9441000C945E000C940000D6
:10008000089584B18F6084B981E085B985B18130EC
:1000900049F485B1880F85B985B1880F85B985B1D7
:1000A000880FF3CF85B1883089F785B1869585B9FA
:1000B00085B1869585B985B18695E7CFF894FFCF50
:00000001FF
