:100000000C9434000C943E000C943E000C943E0082
:100010000C943E000C943E000C943E000C943E0068
:100020000C943E000C943E000C943E000C943E0058
:100030000C943E000C943E000C943E000C943E0048
:100040000C943E000C943E000C943E000C943E0038
:100050000C943E000C943E000C943E000C943E0028
:100060000C943E000C943E0011241FBECFEFD8E04C
:10007000DEBFCDBF0E9455000C9474000C940000AC
:1000800016BC14BC84E085BD88E191E0A89BFECF3E
:1000900016BC95BB8150D1F786E986BDA89BFECFE3
:1000A00081E085BB14BC15BC089584B18F6084B910
:1000B00081E085B985B1813051F4C3E0D0E085B1EC
:1000C000880F85B90E9440002197C9F7F3CF85B109
:1000D000883081F7C3E0D0E085B1869585B90E946C
:0C00E00040002197C9F7E6CFF894FFCF4D
:00000001FF
